:100000000C94DD0D18951895189518951895189558
:100010001895189518951895189518951895189578
:100020001895189518951895189518951895189568
:100030001895189518951895189518950C94F2051B
:100040001895189518951895189518951895189548
:100050001895189518951895189518951895189538
:100060001895189518951895189518951895189528
:100070001895189518951895189518951895189518
:10008000189518951895189518951895F0F80CC4AA
:100090000CF8F00003070C080C070300001018FC14
:1000A000FC0000000008080F0F080800080C84C4BA
:1000B000643C18000E0F0908080C0C00080C44449E
:1000C00044FCB800040C0808080F0700C0E0B09812
:1000D000FCFC8000000000080F0F08007C7C4444FA
:1000E00044C48400040C0808080F0700F0F84C44CE
:1000F00044C08000070F0808080F07000C0C048498
:10010000C47C3C0000000F0F00000000B8FC444419
:1001100044FCB800070F0808080F0700387C444467
:1001200044FCF800000808080C070300E0F0988C75
:1001300098F0E0000F0F0000000F0F0004FCFC44DB
:1001400044FCB800080F0F08080F0700F0F80C0473
:10015000040C180003070C08080C060004FCFC043F
:100160000CF8F000080F0F080C07030004FCFC4417
:10017000E40C1C00080F0F08080C0E0004FCFC44E3
:10018000E40C1C00080F0F0800000000F0F80C84BD
:10019000848C980003070C0808070F00FCFC404003
:1001A00040FCFC000F0F0000000F0F00000004FCDB
:1001B000FC0400000000080F0F080000000000040D
:1001C000FCFC0400070F08080F07000004FCFCC03B
:1001D000E03C1C00080F0F00010F0E0004FCFC04A3
:1001E00000000000080F0F08080C0E00FCFC38701F
:1001F00038FCFC000F0F0000000F0F00FCFC3870F3
:10020000E0FCFC000F0F0000000F0F00F8FC0404DE
:1002100004FCF800070F0808080F070004FCFC4462
:10022000447C3800080F0F0800000000F8FC0404AC
:1002300004FCF800070F080E3C3F270004FCFC44B8
:10024000C4FC3800080F0F00000F0F00183C644476
:10025000C49C1800060E0808080F0700001C0CFCC0
:10026000FC0C1C000000080F0F080000FCFC000044
:1002700000FCFC00070F0808080F0700FCFC00004A
:1002800000FCFC000103060C06030100FCFC00C09E
:1002900000FCFC00070F0E030E0F07000C3CF0E003
:1002A000F03C0C000C0F0301030F0C00003C7CC061
:1002B000C07C3C000000080F0F0800001C0C84C428
:1002C000643C1C000E0F0908080C0E0000A0A0A042
:1002D000E0C00000070F0808070F080004FCFC201E
:1002E00060C08000000F0F08080F0700C0E020204A
:1002F00020604000070F0808080C040080C060243C
:10030000FCFC0000070F0808070F0800C0E0A0A0D1
:10031000A0E0C000070F0808080C040040F8FC44E7
:100320000C180000080F0F0800000000C0E020209B
:10033000C0E02000276F48487F3F000004FCFC40DD
:1003400020E0C000080F0F00000F0F00000020EC9D
:10035000EC0000000000080F0F0800000000000083
:1003600020ECEC0000307040407F3F0004FCFC803B
:10037000C0602000080F0F01030E0C00000004FCF9
:10038000FC0000000000080F0F080000E0E060C063
:1003900060E0C0000F0F0007000F0F0020E0C0203A
:1003A00020E0C000000F0F00000F0F00C0E0202071
:1003B00020E0C000070F0808080F070020E0C02059
:1003C00020E0C000407F7F48080F0700C0E02020E9
:1003D000C0E02000070F08487F7F400020E0C06099
:1003E00020E0C000080F0F080000000040E0A0203F
:1003F00020604000040C09090B0E04002020F8FCCA
:10040000202000000000070F080C0400E0E00000BE
:10041000E0E00000070F0808070F080000E0E00018
:1004200000E0E0000003070C0C070300E0E00080A0
:1004300000E0E000070F0C070C0F07002060C080F1
:10044000C0602000080C0703070C0800E0E0000073
:1004500000E0E000474F4848683F1F00606020A070
:10046000E06020000C0E0B09080C0C00080C040CBA
:10047000080C04000000000000000000000038FC30
:10048000FC3800000000000D0D000000F0F808C866
:10049000C8F8F000070F080B0B0B010020F8F8203C
:1004A000F8F82000020F0F020F0F0200387C4447BB
:1004B00047CC9800060C0838380F07003030008011
:1004C000C06030000C060301000C0C00080C060391
:1004D000060C0800000000000000000080D87CE44A
:1004E000BCD84000070F0808070F080080A0E0C034
:1004F000C0E0A08000020301010302000000F0F848
:100500000C040000000003070C0800000000040CAD
:10051000F8F000000000080C0703000000000000D5
:10052000000000002020202020202020008080E0EB
:10053000E08080000000000303000000004040F85D
:10054000BC040400000000070F080800000404BCFD
:10055000F84040000008080F0700000000000030CD
:10056000300000000000000606000000000E1E0023
:10057000001E0E00000000000000000080C0E0A08F
:10058000808080000001030200000000808080A0C5
:10059000E0C080000000000203010000181C04C439
:1005A000E43C18000000000D0D000000000000BC3D
:1005B000BC0000000000000F0F0000008080808061
:1005C000808080000000000000000000002020204B
:1005D0002020200000010101010101000000FCFCBD
:1005E0000404000000000F0F0808000000000404CD
:1005F000FCFC0000000008080F0F000000000030A5
:10060000300000000000080E0600000000101E0E62
:1006100000000000000000000000000000000000DA
:10062000000000000000101E0E000000000000008E
:10063000000000000000000C0C0000000000008022
:10064000C06030000C060301000000003870E0C0FC
:10065000800000000000000103070E0000000307F7
:10066000040000000000000000000000000C1E124A
:100670001E0C000000000000000000004040E0F000
:10068000F8FCFE000000000103070F00FEFCF8F07C
:10069000E04040000F070301000000000080E0F090
:1006A000E0800000060707070707060030F0F0F0BB
:1006B000F0F030000000030703000000000000001D
:1006C0000000000000000000000000000003030321
:1006D0000303030000000000000000000000000011
:1006E00000000000061E7EFE7E1E060000F0F0F0F8
:1006F000F0F0F000000F0F0F0F0F0F00E08080A050
:10070000E0C080000300000203010000FFFFFFFFC4
:10071000FFFFFFFFFFFFFFFFFFFFFFFFFFFF0303E1
:100720000303FFFFFFFFC0C0C0C0FFFF60787C7EF7
:100730007E7C7860061E3E7E7E3E1E06020202FE23
:10074000020202000000007F40404040000004FE22
:1007500000008000000001010100010000C4A2921D
:100760008C00C00000000000000000000092929287
:100770006C00C0000000000000000000181412FE11
:100780001010C0000000000000000000009E9292C7
:100790006200C00000000000000000000091650041
:1007A000077F009365000E94C8060E94C80600915A
:1007B00065000860009365000C94C806919830E0CD
:1007C0003093FFFE02D0919A089503D02093FFFF4B
:1007D00008950093FFFE1093FFFF089522979198CC
:1007E00091980091FFFF0883919A91980091FFFFE3
:1007F0000983919A919A0881229608958A930E947A
:10080000AD0A802FCBDF21E010E000E085D002E3CD
:100810006BD0E4DF20E010E003E07ED024E010E0C5
:1008200007E057D024E013E00DE053D02AE116E1B1
:1008300070D006E459D023E111E001E04AD020E075
:1008400017E002E046D028E010E105E045D006E0E0
:1008500043D00BE03ED02DE010E00CE05DD020E175
:1008600014E003E032D004E057D02AE112E151D085
:1008700029E111E00DE029D00FE027D001E121D0DE
:1008800004E123D005E148D020E01FE706E119D0BC
:1008900007E11BD040D025E023D025E221D027E27C
:1008A0001FD027E31DD0EEEBF6E003E300830FE754
:1008B000018307EC0283C69A082F0E94B00A89912F
:1008C00008952AD020E01FE9089526D020E010E006
:1008D000089522D001E008C01FD001E005D0F6CF76
:1008E00010E007E019D00AE010E00C94E1068A93CA
:1008F0002FE71FE910D027EC1FE703E364D080E067
:10090000EEEBF6E02481138102E206D08A95C1F76E
:10091000D6CF0EE001C001E251CF0E94380E902EDA
:10092000812FA22E932F0E94AD0A802E913009F0C4
:1009300044C009E7901608F043C0813908F040C070
:1009400066240FE9402E481A8CE890E00FE7502EFD
:1009500059185618252D142DDEDF0A2D10E044E01D
:100960000E94EF0D262D30E0200F311FFC01E20F19
:10097000F31FA491FC01E20FF31F3896B491772482
:1009800001E010E0472D0E94EF0D0A231B23012BED
:1009900031F4252D142D17191A9501E205C0E3EC49
:1009A000F6E02481138102E2B7DF739400E1701650
:1009B00038F3639408E0601648F2082D0E94B00AEC
:1009C000EBE00C94440EEEEBF6E002C0E3ECF6E054
:1009D000008311832283212F102F187F022F02956D
:1009E0000F700695012B03832C71220F220F220F0B
:1009F0000281069506950695022B048308954AD038
:100A000000E443D00E94D1070E94F4060E94FE0336
:100A100000E010E00E942E0CE2E2F9E00083118376
:100A200032D060E04BE257E029D00FE415E029D046
:100A300061E04FE857E022D006E515E022D062E001
:100A400043EF57E01BD006E615E01BD06EE04BEB02
:100A500058E014D008E715E014D063E047E558E00B
:100A60000DD001E715E00DD064E04FE159E006D06C
:100A70000AEC15E00E94E00C0C94170820E030E02E
:100A800008950E94E00C06D002E3E9ECFDE000834B
:100A90001183089504E610E0E7ECFDE0F8CF0E9432
:100AA000520604E610E00E946D0DFBCF0E947C0709
:100AB000002351F000E010E00E9488070F3F21F072
:100AC0001AEA06E90E949F0605D0F0CF0E9491061F
:100AD00001D0FCCF48EC50E020E010E000E00C94A6
:100AE000980D0E94D40640E050E021E0F6DFF9CFF7
:100AF0000AC04CD041F002E000932C0900E0E0E293
:100B0000F9E000830183E6DF00912C090A9589F35F
:100B10000A9529F00A95A1F00A9511F1F4CF36D083
:100B200041F030D00AE000932E0903E000932C0935
:100B3000EACF979800E00093FEFF979A01E0F6CF86
:100B400025D061F000912E090023E9F2EEE2F9E0F0
:100B50000A950083C1F611D004E0E8CF02E0E6CFA9
:100B600015D0E1F300912F09002369F2EFE2F9E0DB
:100B70000A95008341F601D0C6CF04D002E000936D
:100B80002F0908950E942B070C9408070E94B007B4
:100B9000002308958A930E94770420E010E000E08B
:100BA0000E94E30420E010E008EC0E94E60415D067
:100BB0002FE71FE901E214D080E020E014E602E212
:100BC0000FD08A95D1F709D031E025E118E408E18A
:100BD0000E948D0402D07EDFDECF20E010E00AE02C
:100BE0000C94DE030A921A922A923A924A925A92EC
:100BF0006A927A928A929A92AA92BA92CA92DA9255
:100C0000EA92FA920A931A932A933A934A935A933E
:100C10006A937A938A939A93AA93BA93EA93FA93EC
:100C20000BB70A930FB700680A930EB70A930DB774
:100C30000A9300914009039500934009013031F473
:100C4000E0913809F0913909C193D1930E94890646
:100C50000E94F90709910DBF09910EBF09910F7705
:100C60000FBF09910BBFF991E991B991A9919991A0
:100C70008991799169915991499139912991199164
:100C80000991F990E990D990C990B990A99099905B
:100C9000899079906990599049903990299019904C
:100CA0000990189500EB05BF36D078940EE003BF8D
:100CB00000E002BF07E401BF06B7026006BF07B746
:100CC000026007BF00916500077F0093650004E69E
:100CD00015D00091650008600093650022E310E0E4
:100CE00007E00ED022E210D00FD010E003E008D0D1
:100CF00022E010E003E00E94DE0301E010E061C0AA
:100D00000E94DE0301E0FACF10E007E0F9DF20E007
:100D100008950C942C08BD9AC59ABC9ABE9AC698A0
:100D20000895B59B06C0C59804E600000A9531F009
:100D3000FCCFC59A04E600000A95E9F70895BC01C6
:100D400047B358B3BC9AC49A80E090E011C0319682
:100D5000E117F307E0F320E138B3322738BB000096
:100D600000000000000000000000000000000196EC
:100D700030E08017930738F4000000000000000006
:100D8000E0E0F0E0E5CFC49847BB58BBCB01089545
:100D9000192F282F8BE893E200000197082F092BC9
:100DA000D9F7822F912F089500E418B3102718BBAC
:100DB0000000000000000000000000000000000033
:100DC0000895392F482FE0E0F0E008C086EC91E06C
:100DD00000000197282F292BD9F73196E017F1074A
:100DE000A8F3842F932F0895E0E2F9E000E0038751
:100DF00010E000830183018702878F9A8C9A949A6E
:100E000001E0048797981093FEFF1587979A08953D
:100E10000E943F0E802FBED0A0E2B9E0FD011385F5
:100E20001530A8F413951387218530E0E20FF31FE6
:100E30008483FD01118513951187153008F03187E2
:100E40008DD0FD01028113810E94B10C01C086D0BA
:100E5000E4E00C944B0E0FEF97981EE31093FEFF07
:100E6000ECEFFFEF108110FF01E0108111FF02E0B5
:100E7000108112FF03E01DE33CD010FF04E010815D
:100E800011FF05E0108112FF06E01BE332D010FFD6
:100E900007E0108111FF08E0108112FF09E01081C6
:100EA00013FF0AE017E325D010FF0BE0108111FFBC
:100EB0000CE0108112FF0DE0108113FF0EE01FE225
:100EC00018D010FF0FE0108111FF00E1108112FF18
:100ED00001E1108113FF02E11FE10BD010FF03E1DC
:100EE000108111FF04E1108112FF05E110E012836F
:100EF0008DCF1283108108954CD010912B091123AE
:100F000011F081E001C080E029D0082F8991089577
:100F10000E943F0E2197A0E2B9E0AE019801FD01C9
:100F2000028113810E94600C35D0FD0113851123CD
:100F300089F01A951387228530E0E20FF31F848130
:100F4000FD01122F13951287153008F0328706D055
:100F5000082F02C003D00FEF21967ACF0C94B00A6D
:100F6000BA93AA93A0E2B9E00E990DC013D02D91C7
:100F70003C912F5F3F4F3C932E93F0DF00E01D9696
:100F80000C9301E003C000E01D960C93A991B99168
:100F900008958A930C94AD0A062D0E94B00A00E0D1
:100FA000089521970E94CB0BE0E3F9E000E0008B6D
:100FB000018B018F008F00830183028303830483ED
:100FC0000583068307836ED183D145D160E141E477
:100FD0005AE020E030E001E11AE00E94E00CAE01AE
:100FE00020EB35E000E10E94310D0E94CC0B2196F0
:100FF000089577D0A0E3B9E0FD01008D0130A1F4A0
:1010000072D0802FFD010089002311F00A95008B1A
:101010000089002341F40189002329F4A0D119F0AB
:10102000A6D10E946F0B96D2E4E00C944B0EBA93BB
:10103000AA93A0E3B9E0FD01008D002351F493D100
:10104000028B12E0019F9CD0B1D1008711870E94D2
:10105000B20AA991B991089544D00E942A0C80E364
:1010600099E0FC01008D0130D9F5028D002341F09B
:101070000A95B1F10A9511F401E001C000E0028F78
:10108000A685B78514C010E01387128513FD0BC029
:101090001089FC012489212B248BFD0117852685CD
:1010A00030E0FC0151D2FD01A281B38154D2FD0197
:1010B00004850031A9F017D0FD0120853185232B4F
:1010C00091F320852150304020873187232B59F719
:1010D00012851773C1F21285187C128711E0D4CFE4
:1010E000A3CF0C943F0E0C94AD0A8A931801642F81
:1010F000F801058140D0708101E0472F23D2502FA5
:10110000272F30E00101070E131EF001068133D0B6
:10111000808101E0482F16D2770F770F770F780F75
:10112000172F402F4095F00176817423768331F498
:10113000452F4095F10175817423758342E0149F1A
:101140001FD000801180F0013087318736833783CC
:101150003387609542854623428751F4B6D044894F
:10116000452B448BF901E05DF64F2589202B258B1B
:10117000012F8991089510E0F801E254FA4F089583
:10118000F001EE5BF54F08957B2F0A2E980100E3E6
:1011900019E0D8011896ED91FC9126833783468596
:1011A00050E0D801A40FB51F47854095559642D011
:1011B00029F440894095D80154963CD067854685EE
:1011C00050E0F901E40FF51F4681462B4683F801F4
:1011D00000851185F8010089F9011581102B15830F
:1011E000A02DB72F0895BD0198016FD020D01E9675
:1011F0004D9150E0040F151F4C914095D801169663
:1012000019D049F414D050960C910095D901159637
:101210001C9110231C9300E00AD01B9607D01A964D
:1012200005D016960D930C93DB0108950C93A085C1
:10123000B18508955C9154235C93089520E0F801F2
:1012400025830A5F1F4F23E030E0F80131938F01BF
:101250002A95D1F708959A938A9321E930E00DE415
:1012600019E05ED0EDE4F9E08AE699E004E010E0F0
:101270001083818392831FE3118710E012877D968C
:101280004D960A95A1F71083118312830FE301870E
:1012900012870DE419E0EBE4F9E0008311838991F2
:1012A000999108959D0111D000E0048BDF015596BE
:1012B00003E010E01D930A95E1F7128B138B14875E
:1012C000158710871187D9010895E0E3F9E00895A3
:1012D0009A938A9323E633E004E61AE021D022E2CF
:1012E00030E002E41AE01CD0E4E6FAE087E99AE094
:1012F00000E1828393831FE313A310E014A3F3960A
:10130000C3960A95B1F7128313830FE303A314A3C3
:10131000DCDF1687178704E61AE002871387BFCF42
:1013200000C006C040E0F80141938F0121503040D9
:10133000422F432BB9F70895D4DED5DE802FA0E3EA
:10134000B9E0FD010089002341F40189002329F45B
:1013500006D019F00CD00E94E70AFCD065CE03D06D
:1013600012890117089528D0FD010389089512E01C
:10137000019FF001EE5BF54F19D0F8010189128948
:10138000238934890ED0018B128B238B348B0D91E2
:101390001D912D913C9105D03C932E931E930E935D
:1013A00008950F5F1F4F2F4F3F4F08950081118108
:1013B000FD010487158708953B2F4A2F86DF048996
:1013C00010E00FD0202F220F220F220FDF01A00FDD
:1013D000B11F55960C9105D0020F038BA42FB32F8C
:1013E0000895D801A254BA4F0C91089540E006C068
:1013F00031969F01F80151938F014395F901508176
:101400005523B1F720E0F8012083042F089520E050
:1014100001C02395F80131918F013323D1F7022FB9
:10142000089561DE52DF44815581668177814F5F87
:101430005F4F6F4F7F4F44835583668377838BD095
:101440000E94CE0BEECF0E943B0E402E39014BDEA8
:10145000A0E3B9E0FD0182859385182F192B09F4CB
:101460006CC0FC0122813381FD012287338773D058
:10147000FC0160827182448600E00287038710E0ED
:1014800010871187442D469546954695468701E07D
:1014900059D0008B442D4770458701E010E052D0B1
:1014A000078700E010E006830783018B028B038B24
:1014B000048B018F028F038F048F058B068B078BA4
:1014C000008F058F068F078F00A301A302A30FE3F0
:1014D00003A314A38C010E94290C8C010E94CD0B44
:1014E00002DE12E0419E4CDE80839183FD01268561
:1014F0003785FC012283338320E024832583FD018B
:1015000026853785122F132B19F0F90184839583D3
:10151000FD0186879787FC011089FD012489212B15
:10152000248BFC011785268530E0FD010DD0FD01DF
:10153000118D1395118F31DD02C00DD006E4E0E16D
:101540000C94470E0C94EF0DE20FF31F2589212B0D
:10155000258B0895082F0C94B00A0FB7F8940895BE
:101560000FBF08950E94280C00914809039500932D
:101570004809E0913C09F0913D09C191D19109914F
:101580000DBF09910EBF09910F770FBF09910BBFD6
:10159000F991E991B991A99199918991799169917B
:1015A000599149913991299119910991F990E990AD
:1015B000D990C990B990A9909990899079906990A3
:1015C00059904990399029901990099018950A924C
:1015D0001A922A923A924A925A926A927A928A92EB
:1015E0009A92AA92BA92CA92DA92EA92FA920A93DA
:1015F0001A932A933A934A935A936A937A938A93C3
:101600009A93AA93BA93EA93FA930BB70A930FB7F4
:101610000A930EB70A930DB70A93E0913809F09137
:101620003909C193D1930E94280C0091430900937A
:101630004209E0913C09F0913D09E0933809F093AB
:101640003909C191D19109910DBF09910EBF09913D
:1016500007FD22C00FBF09910BBFF991E991B99124
:10166000A99199918991799169915991499139916A
:10167000299119910991F990E990D990C990B9905F
:10168000A990999089907990699059904990399052
:1016900029901990099008950F770FBF09910BBFFA
:1016A000F991E991B991A99199918991799169916A
:1016B000599149913991299119910991F990E9909C
:1016C000D990C990B990A990999089907990699092
:1016D00059904990399029901990099018950E9435
:1016E000280C0091430900934209E0913C09F091D4
:1016F0003D09E0933809F0933909C191D1910991DD
:101700000DBF09910EBF099107FD22C00FBF0991BE
:101710000BBFF991E991B991A99199918991799129
:101720006991599149913991299119910991F990AA
:10173000E990D990C990B990A990999089907990A1
:10174000699059904990399029901990099008957D
:101750000F770FBF09910BBFF991E991B991A99149
:1017600099918991799169915991499139912991E9
:1017700019910991F990E990D990C990B990A990DF
:1017800099908990799069905990499039902990D1
:1017900019900990189508950895089508951D01C8
:1017A00008018901DA01E7ECFDE0408151815195A2
:1017B000419550409D01240F351F42815381F9010D
:1017C000E40FF51F0082129220E02C9321E02E936B
:1017D00022E02E9323E02E9324E02E9325E02E93F7
:1017E00026E02E9327E02E9328E02E9329E02E93D7
:1017F00020E12E9321E12E9322E12E9323E12E93DB
:1018000024E12E9325E12E930E931E9308E10E936F
:1018100009E10E9300E20E9301E20E9302E20E93B1
:1018200003E20E9304E20E9305E20E9306E20E939A
:1018300007E20E9300E30E9301E30E930AEA0E9380
:1018400000E80E933197FE93EE938D01D101089538
:10185000089508950895E4E00C944B0E0E943F0E05
:10186000C80127D019F000E010E022C078D025D0C0
:1018700020813181D901122F132B31F0F9012181FF
:1018800032811BD02083318399D00A2F0B2B79F022
:1018900003E00C93FD018383948300E010E0018357
:1018A00002830FE3018712878D010E941E098D01BB
:1018B000D2CF0091400900230895EBE4F9E00895A8
:1018C0000E943B0ED8013901CA010C91033019F076
:1018D00001E0FA013AC0EDDF11F002E0FACF009129
:1018E0004109002311F001E1F4CF39D0402EFD0170
:1018F00003811481012B31F00381015010400383D7
:1019000014831FC026D002850160028720E021D009
:1019100023871FD0608671868D010E94C408042D24
:1019200043D01DD0402E15D02385213039F48D01B0
:101930000E94F308042D42D00AE006C020E026836E
:101940002783042D3BD000E0FC010083E8E00C94E9
:10195000470EE8E3F9E000811181F80108950C9445
:10196000AD0A25D011F001E01EC0F9DF802FFD0186
:101970000581002351F041E020E030E08D010E941C
:101980007508082F11D000E00EC0038114810F3FAD
:101990002FEF120731F00F5F1F4F038314830DD019
:1019A000F2CF0BD002E357CF09D00C949C090E94D0
:1019B0003F0ED8010C9103300895082F0C94B00A03
:1019C0000E94390E48013901DA01862F84D0109126
:1019D0004009112319F043D000E13DC022E43AE070
:1019E00012E0819F2901400C511CF20120813181BC
:1019F000232B79F521E030E02083318330D060E083
:101A000070E0AD01930184010E94CF0B20E02A9386
:101A10002A932A932A9340E050E060E070E04A93D2
:101A20004A934A934A939801082F0E94230A802FD1
:101A3000002339F400914809013049F40E949C09BF
:101A400006C049D020E0F2012083218308D0082F6E
:101A500002C005D008E2EAE00C94450E042D0C9477
:101A6000B00A0E943B0E23D060807180062D0729AA
:101A700019F4F4DF0BE017C001E010E06016710606
:101A8000C1F38C010E94070A003118F0E7DF0EE075
:101A90000AC09C0103E2600E00E0701E83010E94F8
:101AA000F609DCDF00E00C93E8E00C94470E502EC2
:101AB000C901DA0110D0402E0FEF501631F4E8E3DF
:101AC000F9E000811181F801548402E0509EF00198
:101AD000EE5BF54F08950C94AD0A0E943F0EC801CD
:101AE000012B19F10E94AD0A202FE8E3F9E00081F3
:101AF0001181F8014685A5E4B9E050E0A40FB51FB7
:101B0000378530954C9143234C9339F43089309587
:101B1000E4E4F9E0408143234083F8018087918722
:101B2000022F0E94B00A0E949C09E4E00C944B0E24
:101B30000E943A0E812E622E2A01402F50E060E072
:101B400070E000E11EE032D0C801D901482D0CE35D
:101B50002CD025D0462D400F511F621F731F24D05B
:101B6000C801D901A20160E070E04B5F5F4F6F4F89
:101B70001BD048EE53E060E00E94150E10D0C90162
:101B80000DD004C00AD000E008D00197082F092B1F
:101B900000E0C1F7E9E00C94460E10E89ECF080F74
:101BA000191F2A1F3B1F089504E610E020E030E0D3
:101BB0000C94F50D00008895FECF0FEA0DBF05E0EF
:101BC0000EBFC0E9D2E00E94560E002311F00E9421
:101BD000680E0E94FF040E94DA0D0C94DA0D4A95FB
:101BE0001AF0000F111FFBCF08952224349F302DCF
:101BF000259F300D169F300D079F300D249F202DFF
:101C0000310D159F200D311D069F200D311D149F94
:101C1000102D210D321D059F100D211D321D049F19
:101C2000002D110D221D321D0895002411241001D4
:101C3000E0E2EA9592F0001F111F221F331F001CE3
:101C4000111C221C331C041615062606370688F3C1
:101C5000041A150A260A370AECCF001F111F221F8B
:101C6000331FA001B101009510952095309508957E
:101C7000AA929A928A927A926A925A924A92BA93C3
:101C8000AA939A938A930895AA84998488847F80DA
:101C90006E805D804C80BB81AA8199818881F0E053
:101CA0000FB6F894CE0FDF1F0FBE089501E0089520
:101CB00020E008D0E9F708953BBF27913BB702D059
:101CC000D9F708952D9301501040202F212B08950E
:101CD00000E3402E0DE1502E00E0602EF201362D83
:101CE0006BBE07911691F201EE5FFF4F3F4F3BBF76
:101CF000A791B691F201362DEC5FFF4F3F4F3BBFEE
:101D0000479157916691242F252B262B21F0FA011C
:101D1000362FD2DF01C0CCDF07E0400E00E0501EBE
:101D2000601EA201662D4E335D416040B8F20895F9
:101D30000D07BE060000000E01B0053E1D007543F4
:101D40002F4F532D49492049646C65000000010064
:101D50000200010003000100020001000400010074
:101D60000200010003000100020001000500010063
:101D70000200010003000100020001000400010054
:101D80000200010003000100020001000600010042
:101D90000200010003000100020001000400010034
:101DA0000200010003000100020001000500010023
:101DB0000200010003000100020001000400010014
:101DC0000200010003000100020001000700010001
:101DD00002000100030001000200010004000100F4
:101DE00002000100030001000200010005000100E3
:101DF00002000100030001000200010004000100D4
:101E000002000100030001000200010006000100C1
:101E100002000100030001000200010004000100B3
:101E200002000100030001000200010005000100A2
:101E30000200010003000100020001000400010093
:0C1E40000200010003000100020001008C
:0400000300000000F9
:00000001FF
